:03000000020800F3
:0C080000787FE4F6D8FD758111020847EE
:07095D000508380E01060039
:08090300C2B1D2B67F017E00F3
:10090B00E4FDFCC3ED9FEC9E5015E4FBFA0BBB0022
:10091B00010ABA03F8BB9AF50DBD00010C80E42265
:0A0949008FA0C2B0120903C2B6224B
:0A0953008FA0D2B0120903C2B62231
:0D093C00C280C281C282C283C2B2C28522C3
:10092B00D283120907D2857F0512090BC283C285B8
:01093B002299
:060965003086FDD2B22233
:10088C0012093C12092B120965A990E4F510F51117
:10089C0074082511F8E6FF60141209497F327E00B6
:1008AC0012090B0511E51170E7051080E3E975F0ED
:1008BC0064842430F50DE975F00A8475F00A84E53A
:1008CC00F02430F50EE975F00A84E5F02430F50FCC
:1008DC00E4F583F582C3E5829403E5836480948018
:1008EC00509EAF82740D2FF8E6FF1209537F327EB3
:0708FC000012090BA380DECE
:10080C0002088CE493A3F8E493A34003F68001F26E
:10081C0008DFF48029E493A3F85407240CC8C333ED
:10082C00C4540F4420C8834004F456800146F6DFBC
:10083C00E4800B010204081020408090095DE47EE6
:10084C00019360BCA3FF543F30E509541FFEE493B1
:10085C00A360010ECF54C025E060A840B8E493A378
:10086C00FAE493A3F8E493A3C8C582C8CAC583CAA3
:10087C00F0A3C8C582C8CAC583CADFE9DEE780BE5B
:010964000092
:00000001FF
